:020000040800F2
:10000000881500209D010008EB0900088D030008F9
:10001000E909000819020008351100080000000075
:10002000000000000000000000000000730B00084A
:100030002D02000800000000BD010008550C00085A
:10004000C1010008C1010008C1010008C101000888
:10005000C1010008C101000835020008C101000803
:10006000C1010008C1010008C1010008C101000868
:10007000C1010008C1010008C1010008C101000858
:10008000C1010008C1010008C1010008C101000848
:10009000C1010008C1010008C1010008C101000838
:1000A000C1010008C1010008C1010008C101000828
:1000B000C10C0008C1010008550D0008C10100086D
:1000C000C1010008C1010008C1010008C101000808
:1000D000C1010008A90E0008B50E0008C101000802
:1000E000C1010008C1010008C1010008C1010008E8
:1000F000C1010008C1010008C1010008C1010008D8
:10010000C1010008C1010008C1010008C1010008C7
:10011000C1010008C1010008C1010008C1010008B7
:10012000C1010008C1010008C1010008C1010008A7
:10013000C1010008C1010008C1010008C101000897
:10014000C1010008C1010008C1010008C101000887
:10015000C1010008C1010008C1010008C101000877
:10016000C1010008C1010008C1010008C101000867
:10017000C1010008C1010008C1010008C101000857
:10018000C1010008C1010008DFF80CD000F032F80E
:1001900000480047811300088815002009480168BD
:1001A00041F4700101600848804708480047FEE7B5
:1001B000FEE7FEE7FEE7FEE7FEE7FEE7FEE7FEE717
:1001C000FEE7000088ED00E0650C000889010008EA
:1001D00040EA01039B0703D009E008C9121F08C0C9
:1001E000042AFAD203E011F8013B00F8013B521E49
:1001F000F9D27047064C074D06E0E06840F0010375
:1002000094E8070098471034AC42F6D3FFF7C0FFDC
:10021000B4130008D4130008FEE7000008B1002062
:100220007047014870470000380100207047401EA9
:10023000FDD2704710B522210B4800F0DBFE0B48C1
:10024000FFF7F5FF012000F019F800280BD000207F
:1002500000F08CF810B9002000F000F9BDE8104063
:10026000012000F005B810BD00100140FFFF0F0095
:100270000149086070470000143C0140064A0146ED
:1002800000201268044B0A4014331B680B4202D052
:10029000002A00D001207047003C0140F0B5002347
:1002A000012403270D6804FA03F21540954242D158
:1002B000D0F800C05E0007FA06F52CEA050CC0F87D
:1002C00000C091F804C0D0F800E00CFA06FC4CEA3B
:1002D0000E0CC0F800C091F804C0BCF1010F02D0B0
:1002E000BCF1020F1FD1D0F808C02CEA050CC0F8F1
:1002F00008C091F805C0D0F808E00CFA06FC4CEAFA
:100300000E0CC0F808C0D0F804C02CEA020CC0F8EB
:1003100004C0426891F806C00CFA03FC1FFA8CFC7A
:1003200042EA0C024260C268AA43C260CA79C56848
:10033000B2402A43C2605B1C102BB3D3F0BD4B0705
:10034000DB0E9A40C90810B500EB8100016A0F244A
:100350009C40A1430162016A1143016210BD024643
:10036000002012690A4200D001207047054909683F
:10037000054A32F81000014201D0012070470020E8
:100380007047000010040240B0130008FEE70000B0
:1003900030B587B00121022000F076FB012110204A
:1003A00000F08AFB1F4D072206212846FFF7C7FFF2
:1003B000072211462846FFF7C2FFC0200221049001
:1003C0008DF8151000248DF8164001208DF81700C7
:1003D0008DF8141004A92846FFF760FF4FF4E130B0
:1003E000ADF804400090ADF80640ADF80840ADF817
:1003F0000C400C200C4CADF80A006946204600F079
:100400009FFD0121204600F059FD4021204600F0CB
:1004100052FD012240F22551204600F078FD07B040
:1004200030BD000000040240001001400349044AAE
:1004300031F8101052F8200041837047A2130008D1
:10044000380000200349044A31F8101052F8200007
:1004500001837047A213000838000020044951F8B6
:1004600020104A69034B33F8100042404A6170473C
:1004700038000020A21300081CB50121082000F05C
:1004800003FB4FF26000009001208DF80400002073
:100490008DF8060003218DF805108DF807006946D8
:1004A0000148FFF7FBFE1CBD000C02407CB501219A
:1004B000042000F0E9FA00243F208DF804400225D2
:1004C00000908DF8055069460848FFF7E7FE0121C6
:1004D000084600F0D9FAFF208DF8044000908DF80E
:1004E000055069460248FFF7D9FE7CBD000802406E
:1004F000000002402DE9FC5FBCA0BE4C00680190EA
:10050000BBA0002500680090DFF8ECA2A560E560C4
:100510009AF80300B94E2F464FF00A094FF47A7843
:1005200001282FD19AF80410B1FBF9F04FF4FA61C9
:1005300000FB01FB01213046FFF711FF012807D125
:10054000584600F02BFC0121AD4800F046FC0CE0C1
:10055000042168463EE101213046FFF700FF0128F3
:1005600015D00020FFF762FF012560680228F2D154
:1005700000206760FFF75AFF4FF0040175B168462D
:1005800000F01CFA9AF80300022809D036E0404631
:1005900000F0E4FE0020FFF755FFE6E701A8EFE7D3
:1005A0009AF80410B1FBF9F04FF4FA6100FB01FB7B
:1005B00002213046FFF7D3FE0128C9D1584600F08A
:1005C000EDFB01218E4800F008FC09E002213046D5
:1005D000FFF7C5FE012816D00120FFF727FF0125F0
:1005E00060680228F2D101206760FFF71FFF4FF01B
:1005F00004017DB14FEA0D0000F0E0F99AF8030024
:10060000032809D034E0404600F0A8FE0120FFF79F
:1006100019FFE5E701A8EFE79AF80410B1FBF9F03C
:100620004FF4FA6100FB01FB04213046FFF797FE0F
:1006300001288DD1584600F0B1FB0121704800F02F
:10064000CCFB09E004213046FFF789FE012814D0D5
:100650000220FFF7EBFE012560680228F2D16760F7
:10066000FFF7E4FE4FF0040175B1684600F0A6F90B
:100670009AF80300042809D036E0404600F06EFEE8
:100680000220FFF7DFFEE7E701A8EFE79AF8041082
:10069000B1FBF9F04FF4FA6100FB01FB0821304691
:1006A000FFF75DFE012888D1584600F077FB012155
:1006B000534800F092FB09E008213046FFF74FFE57
:1006C000012816D00320FFF7B1FE0125606802283B
:1006D000F2D103206760FFF7A9FE4FF004017DB15E
:1006E0004FEA0D0000F06AF99AF80300052809D0D6
:1006F00036E0404600F032FE0320FFF7A3FEE5E7B8
:1007000001A8EFE79AF80410B1FBF9F04FF4FA6191
:1007100000FB01FB10213046FFF721FE012888D1A4
:10072000584600F03BFB0121354800F056FB09E03C
:1007300010213046FFF713FE01282DD00420FFF7CB
:1007400075FE012560680228F2D104206760FFF77A
:100750006DFE4FF0040135B34FEA0D0000F02EF9A5
:100760009AF80310062937D19AF80410B1FBF9F072
:100770004FF4FA6100FB01F920213046FFF7EFFD4D
:10078000012890D1484600F009FB01211C4800F0E7
:1007900024FBB146464612E0404600F0DFFD04204F
:1007A000FFF750FECEE701A8D8E720214846FFF723
:1007B000D6FD012812D00520FFF738FE012560681C
:1007C0000228F2D105206760FFF730FE002DA6D188
:1007D000042101A800F0F2F8BDE8FC9F304600F0CB
:1007E000BDFD0520FFF72EFEE9E70000F9F1050049
:1007F000F9F1050414000020640000200008024004
:10080000000800401CB536A1384CD1E90001CDE903
:1008100000013548C07808B1012847D101212046A0
:10082000FFF79DFD012804D19DF80700401C8DF8BD
:10083000070002212046FFF792FD012837D004214E
:100840002046FFF78CFD012804D19DF80700001D0C
:100850008DF8070008212046FFF781FD01282CD0E4
:1008600010212046FFF77BFD012804D19DF80700E9
:1008700010308DF8070020212046FFF770FD012879
:1008800021D040212046FFF76AFD012804D19DF8C0
:10089000070040308DF8070080212046FFF75FFDFC
:1008A000012816D00821684600F088F81CBD9DF884
:1008B0000700801C8DF80700C1E79DF8070008308D
:1008C0008DF80700CCE79DF8070020308DF8070071
:1008D000D7E79DF8070080308DF80700E2E70000B9
:1008E000F9F209000000000064000020000002404E
:1008F0003EB51DA0006800901CA0006801901CA0DF
:10090000006802901B48017800292BD01A4C002562
:100910000570A07FA178884202D0042101A804E0DC
:100920002178F82904D0042102A800F047F818E043
:10093000401E81B2104800F02AFD0F49A27F491ED7
:10094000515C814202D004216846EEE76078F128CC
:1009500002D0F22803D004E0FFF7CCFD01E0FFF75E
:1009600051FFA5773EBD0000F9F10501F9F105023F
:10097000F9F10503140000206400002010B50949B6
:1009800004460020087040F22F11074A012000F0B1
:100990005BFC0649887F1E2803D20C54887F401CCC
:1009A000887710BD14000020B10900086400002001
:1009B00001490120087070471400002030B50C4632
:1009C0000A46A1B0054601466846FFF701FC2146EC
:1009D000284600F0DCFC0DF80400641CE1B2684617
:1009E00000F0C1F821B030BDFEE7704708B54FF404
:1009F000C06000F03FF81E208DF8000001208DF847
:100A000002008DF80300684600F002F808BD0000FF
:100A100030B50F22C47801780123FCB1144C24684E
:100A200001F1E02104F4E064C4F5E064C4F30724B8
:100A3000C4F10405E2404478AC4085781540254374
:100A40002A0181F80024007800F01F018B40400942
:100A5000800000F1E020C0F8003130BD01F01F003F
:100A600083404809800000F1E020C0F8803130BDAB
:100A70000CED00E00249084302490860704700009D
:100A80000000FA050CED00E0044A0029116801D0CD
:100A9000014300E08143116070470000303802409C
:100AA000044A0029116801D0014300E0814311602C
:100AB0007047000040380240044A0029116801D004
:100AC000014300E081431160704700004438024058
:100AD00070B5204A1168204C11F00C0104D066104A
:100AE000042903D0082903D004601BE0066019E044
:100AF0001849091F0B68C3F380550B6803F03F03C7
:100B000015B1B6FBF3F301E0B4FBF3F30C6809682D
:100B1000C4F388146343C1F30141491C4900B3FB8A
:100B2000F1F1016011680F2303EA11110B4B5C5CBA
:100B30000168E14041601468072505EA94241C5DC2
:100B400021FA04F48460126805EA52329A5CD140BA
:100B5000C16070BD083802400024F4002800002065
:100B6000FFF70CBF70470A460146002000F0B8BBF3
:100B7000704770470CB500202749019000900A6823
:100B800042F480320A604FF4A0430A6802F4003253
:100B90000092019A521C0192009A12B9019A9A424B
:100BA000F3D10A68920334D5012000901A484030EE
:100BB000026842F0805202601848026842F44042E3
:100BC00002601548083002680260026842F4004280
:100BD0000260026842F4A0520260031F104A1A60C9
:100BE0000A6842F080720A600A689201FCD50D4AD8
:100BF00040F205611160016821F0030101600168A4
:100C000041F0020101600168C1F381010229FAD1BA
:100C10000CBD00900CBD0000003802400070004088
:100C200008544007003C0240401EB0F1807F01D3D1
:100C3000012070474FF0E0214861054AF02082F81A
:100C4000140D002088610720086100207047000013
:100C50000FE000E002480168491E01607047000093
:100C600050000020124810B5016841F47001016085
:100C70001048016841F0010101600E4A002108326C
:100C8000116002680C4B1A400260031D0B4A1A6087
:100C9000026822F48022026006480C300160FFF7EF
:100CA00069FF03494FF000608039086010BD000003
:100CB00088ED00E000380240FFFFF6FE103000240F
:100CC00070B502214C07204600F093F8204D50B13A
:100CD0000221204600F07EF800220221204600F08A
:100CE00094F8686880470421204600F082F850B1EB
:100CF0000421204600F06EF800220421204600F076
:100D000084F8A86880470821204600F072F850B1A6
:100D10000821204600F05EF800220821204600F05D
:100D200074F8E86880471021204600F062F8002837
:100D30000CD01021204600F04DF800221021204652
:100D400000F063F82869BDE87040004770BD0000FE
:100D50005000002010B50E4C0121204600F049F84B
:100D600001280ED10121204600F034F8094A11680B
:100D7000491C1160022904D100200749106002209B
:100D800008602046BDE81040002100F026B80000B1
:100D90000008004024000020180000203EB5044652
:100DA00001210420FFF77CFE48F69F40641EADF849
:100DB000000001940020064CADF802006946204670
:100DC00000F034F801221146204600F01EF83EBD26
:100DD00000080040C943018270470029018802D001
:100DE00041F0010101E021F0010101807047406AFA
:100DF000704702460020138A92890B4202EA0102E0
:100E000002D0002A00D001207047002A828901D038
:100E10000A4300E08A4382817047416370478163DF
:100E20007047C163704701647047000030B50288A5
:100E3000164B174C98420DD0A0420BD0B0F1804F0A
:100E400008D0144DA84205D0134DA84202D0134D2E
:100E5000A84203D122F070054A882A43104DA842C7
:100E600006D0104DA84203D022F440750A892A43C7
:100E700002804A68C2620A880285984201D0A04274
:100E800001D1897A01860121818230BD00000140B3
:100E9000000401400004004000080040000C004035
:100EA0000010004000140040014800F0A7B8000006
:100EB000380100207047C9430180704700298189AB
:100EC00002D041F4005101E021F4005181817047CA
:100ED00030B501F01F0201240025C1F3421304FACA
:100EE00002F2012B0FD0022B0FD0838A4FEA11217F
:100EF0000088134204FA01F400EA040001D000B1B2
:100F00000125284630BD8389F0E7038AEEE710B556
:100F1000C1F3421301F01F040121A140012B07D0AE
:100F2000022B07D01430002A026805D00A4304E0DF
:100F30000C30F8E71030F6E78A43026010BD00007D
:100F40007FB50446008A0D4620F44051E8880843E6
:100F50002082A08941F20C618843A9882A89114323
:100F60006A8902431143A181A08A20F44071A889B3
:100F70000843A0826846FFF7ABFD1A48844202D0BE
:100F80001948844201D1039800E00298A18909041C
:100F900000EBC00101EB0010296801D5490000E019
:100FA0008900B0FBF1F26420B2FBF0F109010B09FA
:100FB0006FF018056B4302EB8302A3891D044FF009
:100FC000320306D503EBC202B2FBF0F000F00700DB
:100FD00005E003EB0212B2FBF0F000F00F00084353
:100FE00020817FBD00100140001401408088C0F3C3
:100FF00008007047C1F30801818070472DE9F04176
:101000000446006840F22551FFF762FF0025B8B1A1
:101010002068FFF7EBFFE28AA168C0B28854E18A3A
:10102000491C8AB2E282E1898A4200D3E582628B5E
:101030008A4202D2618B491C6183616A01B188478F
:1010400040F2277739462068FFF742FF40F22666D4
:1010500090B1A08AC0B9002239462068FFF757FF37
:1010600031462068BDE8F0410122FFF750BFA08A59
:10107000401EA082BDE8F08131462068FFF728FFBE
:101080000028F7D0A08A70B1618A6068415C20684E
:10109000FFF7B0FF608A401C80B26082A18988425D
:1010A000E5D36582E3E7002231462068FFF72FFF92
:1010B000206A0028DED0BDE8F041004718491748F3
:1010C0004FF48062086001F12800486000F58060FC
:1010D00088608A81CA81002008824882C882088389
:1010E000488388820F4BCB610F4B0B620F4B4B62D7
:1010F00001F628010E4B0B6001F128034B6001F54E
:1011000085638B608A81CA8108824882C88208838D
:1011100048838882C86108624862704700100140B5
:1011200038010020650B0008710B0008610B0008F6
:1011300000440040FEE702E008C8121F08C1002A70
:10114000FAD170477047002001E001C1121F002A48
:10115000FBD1704710B500F03DF8FFF7A7F9FFF796
:1011600045FCFFF789F9BDE8104000F055B80000D4
:101170007FB501210846FFF793FC14481449002469
:1011800000684FF080454008B0FBF1F04FF6FF716A
:10119000ADF800000191ADF80840ADF80240694695
:1011A0002846FFF743FE01212846FFF716FE1C20C4
:1011B0008DF80C0004208DF80D008DF80E400120F4
:1011C0008DF80F0003A8FFF723FC7FBD000000206F
:1011D00040420F0010B500200D4A014600EB4004CC
:1011E00002EB840359609960597002F82410401C86
:1011F000C0B20428F2D307484FF47A710068B0FBFC
:10120000F1F0FFF711FDBDE81040FFF7B1BF00009E
:10121000080100200000002008B5FFF74FFFFFF78E
:10122000B7F84FF4A060FFF725FC25208DF80000EB
:1012300000208DF801008DF8020001208DF80300D8
:101240006846FFF7E5FB08BD2DE9F0411446064668
:101250000D46052900D34D1F4FF080473846FFF754
:10126000C6FD41191D48012E14D0022E1DD0032E9B
:1012700026D0042E2FD104613846FFF7D4FD10216B
:101280003846FFF7A7FD012210213846BDE8F0419E
:10129000FFF7BBBD44603846FFF7BFFD022138466B
:1012A000FFF798FD01220221EFE784603846FFF73F
:1012B000B6FD04213846FFF78DFD01220421E4E745
:1012C000C4603846FFF7ADFD08213846FFF782FDC0
:1012D00001220821D9E7BDE8F0810000500000207C
:1012E000F8B515460E46FEF799FF040034D0E069C4
:1012F00000B18047002025E0A189012282F31088F7
:10130000A28AADF80020002282F31088BDF80020E8
:101310009142F2D9315C238A6268D154012181F370
:101320001088218A491C89B22182A289914201D365
:1013300000212182A18A491CA182002181F3108809
:10134000401C80B2A842D7D32068BDE8F8400122F3
:1013500040F22771FFF7DBBDF8BD000010B5064C69
:1013600020800648FFF760FC20880028FCD14FF061
:10137000E021086110BD00005000002040900200F4
:10138000FFF770FCFFF7E6FEFFF7B2FAFCE7024654
:10139000002002E0535C1844C0B2491E89B2F9D261
:1013A0007047001000200040008020004000000630
:1013B00001000100D41300080000002064000000B8
:1013C00036110008381400086400002024150000BD
:1013D00046110008007A030A000000000000000027
:1013E00001020304060708090000000000000000D5
:1013F00000000000000000000000000000000000ED
:10140000010203040102030406070809000C02405C
:10141000000C0240000C0240000C0240000C024094
:10142000000C02400000000000000000000000006E
:081430000000000000000000B4
:040000050800018965
:00000001FF
