:020000040800F2
:10000000F81500209D01000823100008CD0300080A
:100010002110000819020008F9170008000000006C
:10002000000000000000000000000000AB1100080C
:100030002D02000800000000BD010008191300088F
:10004000C1010008C1010008C1010008C101000888
:10005000C1010008C101000835020008C101000803
:10006000C1010008C1010008C1010008C101000868
:10007000C1010008C1010008C1010008C101000858
:10008000C1010008C1010008C1010008C101000848
:10009000C1010008C1010008C1010008C101000838
:1000A000C1010008C1010008C1010008C101000828
:1000B00085130008C101000819140008C1010008D7
:1000C000C1010008C1010008C1010008C101000808
:1000D000C1010008C10100086D1500087115000874
:1000E000C1010008C1010008C1010008C1010008E8
:1000F000C1010008C1010008C1010008C1010008D8
:10010000C1010008C1010008C1010008C1010008C7
:10011000C1010008C1010008C1010008C1010008B7
:10012000C1010008C1010008C1010008C1010008A7
:10013000C1010008C1010008C1010008C101000897
:10014000C1010008C1010008C1010008C101000887
:10015000C1010008C1010008C1010008C101000877
:10016000C1010008C1010008C1010008C101000867
:10017000C1010008C1010008C1010008C101000857
:10018000C1010008C1010008DFF80CD000F032F80E
:1001900000480047D91A0008F815002009480168EE
:1001A00041F4700101600848804708480047FEE7B5
:1001B000FEE7FEE7FEE7FEE7FEE7FEE7FEE7FEE717
:1001C000FEE7000088ED00E029130008890100081F
:1001D00040EA01039B0703D009E008C9121F08C0C9
:1001E000042AFAD203E011F8013B00F8013B521E49
:1001F000F9D27047064C074D06E0E06840F0010375
:1002000094E8070098471034AC42F6D3FFF7C0FFDC
:100210000C1C00082C1C0008FEE7000008B10020A0
:100220007047014870470000A40100207047401E3D
:10023000FDD2704710B50848FFF7F9FF012000F024
:1002400015F8002806D0054901200870BDE81040C7
:1002500000F006B810BD0000FFFF0F0000000020F6
:100260000149086070470000143C0140064A0146FD
:1002700000201268044B0A4014331B680B4202D062
:10028000002A00D001207047003C014030B51A49D7
:100290008379026853B30B6893430B600A1D13689C
:1002A0000468A343136002790A4413680468234373
:1002B0001360114A083213680468A3431360131DC6
:1002C0001C680568AC431C604479102C05D021449F
:1002D0000A68006802430A6030BD1168046821435F
:1002E0001160196800680143196030BD0079084445
:1002F00001689143016030BD003C0140F0B500232E
:10030000012403270D6804FA03F21540954242D1F7
:10031000D0F800C05E0007FA06F52CEA050CC0F81C
:1003200000C091F804C0D0F800E00CFA06FC4CEADA
:100330000E0CC0F800C091F804C0BCF1010F02D04F
:10034000BCF1020F1FD1D0F808C02CEA050CC0F890
:1003500008C091F805C0D0F808E00CFA06FC4CEA99
:100360000E0CC0F808C0D0F804C02CEA020CC0F88B
:1003700004C0426891F806C00CFA03FC1FFA8CFC1A
:1003800042EA0C024260C268AA43C260CA79C568E8
:10039000B2402A43C2605B1C102BB3D3F0BD4B07A5
:1003A000DB0E9A40C90810B500EB8100016A0F24EA
:1003B0009C40A1430162016A1143016210BD0246E3
:1003C000002012690A4200D001207047FEE70000B9
:1003D00030B587B00121082000F072FE01218804A9
:1003E00000F07AFE1F4D072208212846FFF7D7FFAD
:1003F000072209212846FFF7D2FF4FF4407002215F
:1004000004908DF8151000248DF8164001208DF809
:1004100017008DF8141004A92846FFF76FFF4FF45A
:10042000E130ADF804400090ADF80640ADF808406A
:10043000ADF80C400C200C4CADF80A006946204683
:1004400001F0E0F80121204601F09BF84021204610
:1004500001F094F8012240F22551204601F0BAF84B
:1004600007B030BD000C0240004800401CB501211F
:10047000084600F025FE0120009000208DF80400C1
:100480008DF8070069460248FFF738FF1CBD0000E1
:10049000000002400349044A31F8101052F82000CD
:1004A00041837047C41B00083C0000200349044AF4
:1004B00031F8101052F8200001837047C41B000867
:1004C0003C0000207CB50121084600F0F9FD012523
:1004D0008DF80450002441F6FC708DF80640032688
:1004E00000908DF805608DF8074069460A48FFF7CF
:1004F00005FF0121022000F0E3FD8DF804503320B8
:100500008DF8064000908DF805608DF8074069462B
:100510000248FFF7F3FE7CBD0000024000040240E9
:100520007CB50121102000F0CBFD00254FF6FF74B3
:100530008DF80450022600948DF8056069460A483B
:10054000FFF7DCFE0121082000F0BAFD8DF8045011
:1005500001208DF8070000948DF805606946034876
:10056000FFF7CCFE7CBD000000100240000C0240F2
:100570002DE9FE4FF9A0FB4C00680190F8A0002582
:1005800000680090DFF8E0A3A560E5609AF803003A
:10059000F64E2F464FF00A094FF47A7801282FD1F2
:1005A0009AF80410B1FBF9F04FF4FA6100FB01FB7B
:1005B00001213046FFF703FF012807D1584600F01C
:1005C0004FFF0121EA4800F06AFF0CE00421684671
:1005D000B2E301213046FFF7F2FE012815D00020DA
:1005E000FFF758FF012560680228F2D100206760FC
:1005F000FFF750FF4FF0040175B1684600F0FAFCB8
:100600009AF80300022809D036E0404601F052FA79
:100610000020FFF74BFFE6E701A8EFE79AF8041088
:10062000B1FBF9F04FF4FA6100FB01FB0221304607
:10063000FFF7C5FE0128C9D1584600F011FF01217E
:10064000CB4800F02CFF09E002213046FFF7B7FE4F
:10065000012816D00120FFF71DFF01256068022840
:10066000F2D101206760FFF715FF4FF004017DB163
:100670004FEA0D0000F0BEFC9AF80300032809D0F1
:1006800034E0404601F016FA0120FFF70FFFE5E7DE
:1006900001A8EFE79AF80410B1FBF9F04FF4FA6102
:1006A00000FB01FB04213046FFF789FE01288DD1B4
:1006B000584600F0D5FE0121AD4800F0F0FE09E0FB
:1006C00004213046FFF77BFE012814D00220FFF7FB
:1006D000E1FE012560680228F2D16760FFF7DAFECB
:1006E0004FF0040175B1684600F084FC9AF80300ED
:1006F000042809D036E0404601F0DCF90220FFF77B
:10070000D5FEE7E701A8EFE79AF80410B1FBF9F08E
:100710004FF4FA6100FB01FB08213046FFF74FFE62
:10072000012888D1584600F09BFE0121904800F036
:10073000B6FE09E008213046FFF741FE012816D039
:100740000320FFF7A7FE012560680228F2D10320ED
:100750006760FFF79FFE4FF004017DB14FEA0D0087
:1007600000F048FC9AF80300052809D036E040461E
:1007700001F0A0F90320FFF799FEE5E701A8EFE7F4
:100780009AF80410B1FBF9F04FF4FA6100FB01FB99
:1007900010213046FFF713FE012888D1584600F09B
:1007A0005FFE0121724800F07AFE09E01021304618
:1007B000FFF705FE012816D00420FFF76BFE012588
:1007C00060680228F2D104206760FFF763FE4FF0F3
:1007D00004017DB14FEA0D0000F00CFC9AF8030013
:1007E000062809D036E0404601F064F90420FFF7FE
:1007F0005DFEE5E701A8EFE79AF80410B1FBF9F018
:100800004FF4FA6100FB01FB20213046FFF7D7FDD2
:10081000012886D1584600F023FE0121544800F0FB
:100820003EFE09E020213046FFF7C9FD012816D021
:100830000520FFF72FFE012560680228F2D1052070
:100840006760FFF727FE4FF004017DB14FEA0D000E
:1008500000F0D0FB9AF80300072809D036E04046A4
:1008600001F028F90520FFF721FEE5E701A8EFE7F1
:100870009AF80410B1FBF9F04FF4FA6100FB01FBA8
:1008800040213046FFF79BFD012886D1584600F0F5
:10089000E7FD0121364800F002FE09E04021304624
:1008A000FFF78DFD012816D00620FFF7F3FD012587
:1008B00060680228F2D106206760FFF7EBFD4FF079
:1008C00004017DB14FEA0D0000F094FB9AF803009B
:1008D000082809D036E0404601F0ECF80620FFF782
:1008E000E5FDE5E701A8EFE79AF80410B1FBF9F0A0
:1008F0004FF4FA6100FB01FB80213046FFF75FFDFA
:10090000012886D1584600F0ABFD0121184800F0BF
:10091000C6FD09E080213046FFF751FD012816D0C1
:100920000720FFF7B7FD012560680228F2D10720F4
:100930006760FFF7AFFD4FF00401DDB14FEA0D0036
:1009400000F058FB9AF80300092815D044E040460F
:1009500001F0B0F80720FFF7A9FDE5E7F9F1050080
:10096000F9F1050418000020D0000020001002401A
:100970000008004001A8E3E79AF804104FF4807BD8
:10098000B1FBF9F04FF4FA61484302905946304602
:10099000FFF715FD0128B4D1029800F061FD012197
:1009A000EB4800F07CFD09E059463046FFF707FDB3
:1009B000012816D00820FFF76DFD01256068022888
:1009C000F2D108206760FFF765FD4FF004017DB1AB
:1009D0004FEA0D0000F00EFB9AF80300102809D032
:1009E00038E0404601F066F80820FFF75FFDE5E7D4
:1009F00001A8EFE79AF804104FF4007BB1FBF9F07F
:100A00004FF4FA614843029059463046FFF7D7FC4D
:100A10000128C0D1029800F023FD0121CC4800F04C
:100A20003EFD09E059463046FFF7C9FC012816D0C3
:100A30000920FFF72FFD012560680228F2D1092067
:100A40006760FFF727FD4FF004017DB14FEA0D000D
:100A500000F0D0FA9AF80300112809D038E0404697
:100A600001F028F80920FFF721FDE5E701A8EFE7ED
:100A70009AF804104FF4806BB1FBF9F04FF4FA616F
:100A80004843029059463046FFF799FC0128C0D1EF
:100A9000029800F0E5FC0121AD4800F000FD09E0FE
:100AA00059463046FFF78BFC012816D00A20FFF785
:100AB000F1FC012560680228F2D10A206760FFF787
:100AC000E9FC4FF004017DB14FEA0D0000F092FA0D
:100AD0009AF80300122809D038E0404600F0EAFFF7
:100AE0000A20FFF7E3FCE5E701A8EFE79AF8041016
:100AF0004FF4006BB1FBF9F04FF4FA6148430290F8
:100B000059463046FFF75BFC0128C0D1029800F03F
:100B1000A7FC01218E4800F0C2FC09E0594630468E
:100B2000FFF74DFC012816D00B20FFF7B3FC012581
:100B300060680228F2D10B206760FFF7ABFC4FF032
:100B400004017DB14FEA0D0000F054FA9AF8030059
:100B5000132809D038E0404600F0ACFF0B20FFF727
:100B6000A5FCE5E701A8EFE79AF804104FF4805BD5
:100B7000B1FBF9F04FF4FA61484302905946304610
:100B8000FFF71DFC0128C0D1029800F069FC01218B
:100B90006F4800F084FC09E059463046FFF70FFC2F
:100BA000012816D00C20FFF775FC0125606802288B
:100BB000F2D10C206760FFF76DFC4FF004017DB1AE
:100BC0004FEA0D0000F016FA9AF80300142809D035
:100BD00038E0404600F06EFF0C20FFF767FCE5E7C9
:100BE00001A8EFE79AF804104FF4005BB1FBF9F0AD
:100BF0004FF4FA614843029059463046FFF7DFFB55
:100C00000128C0D1029800F02BFC0121504800F0CF
:100C100046FC09E059463046FFF7D1FB012816D0C3
:100C20000D20FFF737FC012560680228F2D10D2066
:100C30006760FFF72FFC4FF004017DB14FEA0D0014
:100C400000F0D8F99AF80300152809D038E040469A
:100C500000F030FF0D20FFF729FCE5E701A8EFE7E2
:100C60009AF804104FF4804BB1FBF9F04FF4FA619D
:100C70004843029059463046FFF7A1FB0128C0D1F6
:100C8000029800F0EDFB0121314800F008FC09E07A
:100C900059463046FFF793FB01282FD00E20FFF76F
:100CA000F9FB012560680228F2D10E206760FFF78A
:100CB000F1FB4FF0040145B34FEA0D0000F09AF943
:100CC0009AF80310162939D19AF80410B1FBF9F0FB
:100CD0004FF4FA6100FB01FA4FF4004949463046EF
:100CE000FFF76DFB01288CD1504600F0B9FB0121C4
:100CF000174800F0D4FBB246464612E0404600F0EA
:100D0000D9FE0E20FFF7D2FBCCE701A8D6E7494673
:100D10005046FFF754FB012812D00F20FFF7BAFB13
:100D2000012560680228F2D10F206760FFF7B2FB4F
:100D3000002DA4D1042101A800F05CF9BDE8FE8FCC
:100D4000304600F0B7FE0F20FFF7B0FBE9E70000E8
:100D5000000800402DE9FC5F6CA14FF48075D1E9DB
:100D60000001CDE900016B486E006B4CC078AF000C
:100D70004FF400684FF480594FF4005A4FF4804B01
:100D800008B101287DD101212046FFF718FB012879
:100D900004D19DF80700401C8DF807000221204671
:100DA000FFF70DFB01286DD004212046FFF707FB5C
:100DB000012804D19DF80700001D8DF807000821C7
:100DC0002046FFF7FCFA012876D010212046FFF7D5
:100DD000F6FA012804D19DF8070010308DF80700BD
:100DE00020212046FFF7EBFA01286BD04021204656
:100DF000FFF7E5FA012804D19DF8070040308DF88F
:100E0000070080212046FFF7DAFA012860D0294642
:100E10002046FFF7D4FA012804D19DF80600401CB3
:100E20008DF8060031462046FFF7C9FA012855D053
:100E300039462046FFF7C3FA012804D19DF8060081
:100E4000001D8DF8060041462046FFF7B8FA01283C
:100E50004AD049462046FFF7B2FA012804D19DF84E
:100E6000060010308DF8060051462046FFF7A7FA1D
:100E700001283FD059462046FFF7A1FA012807D1A3
:100E800001E010E012E09DF8060040308DF8060009
:100E90004FF400412046FFF792FA012830D0082194
:100EA000684600F0A7F8BDE8FC9F05E09DF8070044
:100EB000801C8DF8070077E79DF8070008308DF853
:100EC000070082E79DF8070020308DF807008DE7C6
:100ED0009DF8070080308DF8070098E79DF8060020
:100EE000801C8DF80600A3E79DF8060008308DF8F9
:100EF0000600AEE79DF8060020308DF80600B9E741
:100F00009DF8060080308DF80600C8E7F9F2090068
:100F100000000000D0000020000C02403EB51FA0E1
:100F2000006800901EA0006801901EA0006802905A
:100F30001D48017800292FD000250570EE211B489F
:100F400000F0BAFB1A4CA07FA178884202D004219D
:100F500001A804E02178F82904D0042102A800F0B7
:100F600049F818E0401E81B2114800F0BEFD10495A
:100F7000A27F491E515C814202D004216846EEE7FF
:100F80006078F12802D0F22803D004E0FFF7F0FAED
:100F900001E0FFF7DFFEA5773EBD0000F9F1050196
:100FA000F9F10502F9F1050318000020004800409E
:100FB000D000002010B5094904460020087040F216
:100FC0002F11074A012000F0A7FC0649887F1E2840
:100FD00003D20C54887F401C887710BD1800002075
:100FE000E90F0008D0000020014901200870704777
:100FF0001800002030B50C460A46A1B0054601464F
:101000006846FFF7E5F82146284600F06EFD0DF82A
:101010000400641CE1B2684600F0C1F821B030BDA4
:10102000FEE7704708B54FF4C06000F03FF81E209F
:101030008DF8000001208DF802008DF8030068464D
:1010400000F002F808BD000030B50F22C478017826
:101050000123FCB1144C246801F1E02104F4E064A4
:10106000C4F5E064C4F30724C4F10405E240447805
:10107000AC408578154025432A0181F8002400788A
:1010800000F01F018B404009800000F1E020C0F813
:10109000003130BD01F01F0083404809800000F19D
:1010A000E020C0F8803130BD0CED00E0024908437B
:1010B00002490860704700000000FA050CED00E0EE
:1010C000044A0029116801D0014300E08143116006
:1010D0007047000030380240044A0029116801D0EE
:1010E000014300E081431160704700004038024036
:1010F000044A0029116801D0014300E081431160D6
:10110000704700004438024070B5204A1168204CF6
:1011100011F00C0104D06610042903D0082903D073
:1011200004601BE0066019E01849091F0B68C3F34F
:1011300080550B6803F03F0315B1B6FBF3F301E0F4
:10114000B4FBF3F30C680968C4F388146343C1F378
:101150000141491C4900B3FBF1F1016011680F2303
:1011600003EA11110B4B5C5C0168E14041601468BB
:10117000072505EA94241C5D21FA04F484601268B2
:1011800005EA52329A5CD140C16070BD0838024015
:101190000024F4002C000020FFF70CBF70470A4623
:1011A0000146002000F048BC7047704710B58A0720
:1011B00021F003040849130F21440F22D1F80848F5
:1011C0009A409443C1F80848D1F80828984002434F
:1011D000C1F8082810BD0000003001400CB5002007
:1011E0002749019000900A6842F480320A604FF467
:1011F000A0430A6802F400320092019A521C019244
:10120000009A12B9019A9A42F3D10A68920334D52E
:10121000012000901A484030026842F0805202607B
:101220001848026842F440420260154808300268DB
:101230000260026842F400420260026842F4A05276
:101240000260031F104A1A600A6842F080720A6046
:101250000A689201FCD50D4A40F2056111600168EF
:1012600021F003010160016841F0020101600168A1
:10127000C1F381010229FAD10CBD00900CBD000020
:10128000003802400070004008544007003C024013
:101290003EB5044601218803FFF72AFF1248015D8D
:1012A0000020FFF783FF10480125001D30F81400CF
:1012B000009000208DF804000C208DF805008DF8BA
:1012C00006506846FEF7E2FF0748401C005D8DF8B7
:1012D00008000F208DF809008DF80A008DF80B50DA
:1012E00002A8FFF7B1FE3EBD041C0008401EB0F18D
:1012F000807F01D3012070474FF0E0214861054A0B
:10130000F02082F8140D0020886107200861002079
:10131000704700000FE000E002480168491E0160CC
:1013200070470000BC000020124810B5016841F46D
:10133000700101601048016841F0010101600E4A2E
:1013400000210832116002680C4B1A400260031D34
:101350000B4A1A60026822F48022026006480C30B0
:101360000160FFF73BFF03494FF0006080390860E0
:1013700010BD000088ED00E000380240FFFFF6FEDF
:101380001030002470B502214C07204600F093F87D
:10139000204D50B10221204600F07EF800220221AB
:1013A000204600F094F8686880470421204600F049
:1013B00082F850B10421204600F06EF8002204218A
:1013C000204600F084F8A86880470821204600F0F5
:1013D00072F850B10821204600F05EF80022082182
:1013E000204600F074F8E86880471021204600F09D
:1013F00062F800280CD01021204600F04DF80022A1
:101400001021204600F063F82869BDE870400047CD
:1014100070BD0000BC00002010B50E4C012120461C
:1014200000F049F801280ED10121204600F034F8DF
:10143000094A1168491C1160022904D1002007499A
:101440001060022008602046BDE81040002100F036
:1014500026B8000000080040280000201C000020E2
:101460003EB5044601210420FFF736FE48F69F40B2
:10147000641EADF8000001940020064CADF8020097
:101480006946204600F034F801221146204600F05B
:101490001EF83EBD00080040C94301827047002984
:1014A000018802D041F0010101E021F00101018039
:1014B0007047406A704702460020138A92890B42A7
:1014C00002EA010202D0002A00D001207047002A5F
:1014D000828901D00A4300E08A43828170474163D8
:1014E000704781637047C1637047016470470000B3
:1014F00030B50288164B174C98420DD0A0420BD045
:10150000B0F1804F08D0144DA84205D0134DA84229
:1015100002D0134DA84203D122F070054A882A4315
:10152000104DA84206D0104DA84203D022F44075B9
:101530000A892A4302804A68C2620A880285984260
:1015400001D0A04201D1897A01860121818230BD7A
:101550000000014000040140000400400008004079
:10156000000C0040001000400014004070470000D4
:10157000014800F0A5B80000A4010020C943018083
:1015800070470029818902D041F4005101E021F423
:1015900000518181704730B501F01F020124002500
:1015A000C1F3421304FA02F2012B0FD0022B0FD029
:1015B000838A4FEA11210088134204FA01F400EAF9
:1015C000040001D000B10125284630BD8389F0E731
:1015D000038AEEE710B5C1F3421301F01F040121A5
:1015E000A140012B07D0022B07D01430002A02683B
:1015F00005D00A4304E00C30F8E71030F6E78A43E0
:10160000026010BD7FB50446008A0D4620F44051AB
:10161000E88808432082A08941F20C618843A988A8
:101620002A8911436A8902431143A181A08A20F4C7
:101630004071A8890843A0826846FFF765FD1A48F3
:10164000844202D01948844201D1039800E00298F4
:10165000A189090400EBC00101EB0010296801D544
:10166000490000E08900B0FBF1F26420B2FBF0F128
:1016700009010B096FF018056B4302EB8302A38984
:101680001D044FF0320306D503EBC202B2FBF0F0AB
:1016900000F0070005E003EB0212B2FBF0F000F0EF
:1016A0000F00084320817FBD00100140001401405D
:1016B0008088C0F308007047C1F30801818070473B
:1016C0002DE9F0410446006840F22551FFF763FF21
:1016D0000025B8B12068FFF7EBFFE28AA168C0B22D
:1016E0008854E18A491C8AB2E282E1898A4200D3A5
:1016F000E582628B8A4202D2618B491C6183616AF6
:1017000001B1884740F2277739462068FFF743FF49
:1017100040F2266690B1A08AC0B9002239462068FE
:10172000FFF758FF31462068BDE8F0410122FFF77E
:1017300051BFA08A401EA082BDE8F08131462068DA
:10174000FFF729FF0028F7D0A08A70B1618A60688E
:10175000415C2068FFF7B0FF608A401C80B2608265
:10176000A1898842E5D36582E3E7002231462068FB
:10177000FFF730FF206A0028DED0BDE8F0410047C7
:10178000184917484FF48062086001F1280048604A
:1017900000F5806088608A81CA81002008824882C2
:1017A000C8820883488388820F4BCB610F4B0B6242
:1017B0000F4B4B6201F628010E4B0B6001F1280321
:1017C0004B6001F585638B608A81CA8108824882FB
:1017D000C882088348838882C8610862486270476B
:1017E00000480040A40100209D110008A911000834
:1017F0009911000800440040FEE702E008C8121FEB
:1018000008C1002AFAD170477047002001E001C1E9
:10181000121F002AFBD1704710B500F043F8FEF705
:101820007FFEFFF7FFFBFEF74DFE00F081F900F0B1
:101830005BF8FEF71BFEBDE810400020FFF728BD57
:101840007FB501210846FFF747FC144814490024DE
:1018500000684FF080454008B0FBF1F04FF6FF7193
:10186000ADF800000191ADF80840ADF802406946BE
:101870002846FFF73DFE01212846FFF710FE1C20F9
:101880008DF80C0004208DF80D008DF80E4001201D
:101890008DF80F0003A8FFF7D7FB7FBD04000020E1
:1018A00040420F0010B500200D4A014600EB4004F5
:1018B00002EB840359609960597002F82410401CAF
:1018C000C0B20428F2D307484FF47A710068B0FB25
:1018D000F1F0FFF70BFDBDE81040FFF7B1BF0000CE
:1018E000740100200400002008B5FFF749FFFEF74F
:1018F0006FFD4FF4A060FFF7D9FB27208DF80000A3
:1019000000208DF801008DF8020001208DF8030001
:101910006846FFF799FB08BD2DE9F04114460646DD
:101920000D46052900D34D1F4FF080473846FFF77D
:10193000C0FD41191D48012E14D0022E1DD0032ECA
:1019400026D0042E2FD104613846FFF7CEFD10219A
:101950003846FFF7A1FD012210213846BDE8F041CD
:10196000FFF7B5BD44603846FFF7B9FD02213846A0
:10197000FFF792FD01220221EFE784603846FFF76E
:10198000B0FD04213846FFF787FD01220421E4E77A
:10199000C4603846FFF7A7FD08213846FFF77CFDF5
:1019A00001220821D9E7BDE8F0810000BC00002039
:1019B0002DE9F0419AB0002420221C4910A8FEF71E
:1019C00007FC1A49202220316846FEF701FC17491E
:1019D0002022403108A8FEF7FBFB154801780029BA
:1019E00021D0002101706D4608AE10AFDFF84480B1
:1019F00006E000BF00F090F816F81400FEF756FD60
:101A000037F814104046FEF7DAFC002815F81400E9
:101A1000F0D000F075F816F81400FEF73BFD641CDA
:101A2000E4B2102CECD31AB0BDE8F081641B0008BE
:101A300000000020000C0240F8B515460E46FEF7E7
:101A4000EDFB040034D0E06900B18047002025E0C0
:101A5000A189012282F31088A28AADF80020002219
:101A600082F31088BDF800209142F2D9315C238ABC
:101A70006268D154012181F31088218A491C89B2FE
:101A80002182A289914201D300212182A18A491C8D
:101A9000A182002181F31088401C80B2A842D7D3D4
:101AA0002068BDE8F840012240F22771FFF792BD9F
:101AB000F8BD000010B5064C20800648FFF716FC64
:101AC00020880028FCD14FF0E021086110BD000003
:101AD000BC00002040900200FFF726FCFFF79CFEB0
:101AE000FFF71CFAFFF764FFFAE70246002002E066
:101AF000535C1844C0B2491E89B2F9D27047000045
:101B00000349044A31F8101052F82000418370470D
:101B1000E41B00087C0000200349044A31F810103F
:101B200052F8200001837047E41B00087C0000206D
:101B30001CB501210420FFF7C3FA4FF6FF70009097
:101B400001208DF8040000208DF8060003218DF897
:101B500005108DF8070069460148FEF7CFFB1CBD54
:101B600000080240010002000400080010002000EC
:101B70004000800000010002000400080010002066
:101B80000040008000000100020003000400050086
:101B900006000700080009000A000B000C000D00F9
:101BA0000E000F0000000100020003000400050009
:101BB00005000700080009000A000B000C000D00DA
:101BC0000E000F00040008001000200040008000FC
:101BD0000001000200040008001000800100020063
:101BE0001000200001000200040008001000200086
:101BF00040008000000100020004000800100020E6
:101C00000040008000060100010000002C1C0008BC
:101C100000000020D0000000FA170008FC1C00089B
:101C2000D0000020281500000A180008000000005D
:101C3000007A030A00000000000000000102030413
:101C40000607080900000000000000000000000076
:101C5000000000000000000000000000010203047A
:101C600001020304060708090000024000000240C8
:101C7000000002400000024000000240000002405C
:101C8000000002400000024000000240000002404C
:101C90000000024000000240000402400004024034
:101CA0000004024000040240000802400008024014
:101CB00000080240000802400008024000080240FC
:101CC00000080240000802400008024000080240EC
:101CD00000080240000802400008024000080240DC
:101CE0000008024000080240000000000000000060
:0C1CF000000000000000000000000000E8
:040000050800018965
:00000001FF
